:02000000DE2AF6
:0E000600213083120313FD00FD0B07280800B4
:100014000F3083120313FC004730FD00FD0B102842
:0A002400FC0B10280000000008008B
:06002E00000000000800C4
:0E003400F201F101F001F801F30100300800C3
:100042007B15FB1F2B280130F300F201F101F001B7
:08005200FA0DF20CFF3008006A
:08005A00FA1FF2130030080048
:1000620083160313B71B3828831286133A28831288
:1000720086178316371B40288312061342288312E1
:1000820006178316B71A4828831286124A28831243
:1000920086168316371A50288312061252288312A4
:1000A20006166518562806155728061186151720B4
:1000B20086118316B7196028831286136228831269
:1000C2008617831637196828831206136A28831243
:1000D20006178316B71870288312861272288312A5
:1000E2008616831637187828831206127A28831206
:1000F200061665187E2806157F2806118615172014
:0E0102008611651C86280A2087280320080025
:10011000FB14FB1F9228FF30F300F200F100F00007
:08012000FA0DF20CFF3008009B
:1001280083120313651083163608B700312065144F
:020138000800BD
:10013A007B14FB1FA828F201FA1FFF30F200F1001E
:0A014A00F000FA0DF20CFF3008007F
:10015400A0017208031DBF287108F2007008F100A5
:10016400F001A0157208031DBF287108F200F10107
:10017400A011201672080319CD282008F302031DCC
:10018400031CD1280310F21BD528F00DF10DF20D3C
:10019400F30BC528D1280130FC001A20D8280230DE
:0E01A400FC002120D8280430FC002D2008008B
:0E01B2008312031364088A00630882000800A9
:1001C00083120313FB01FC01FA01730803191F29B1
:1001D000F2178E30F302F31BF0280319F0282229BE
:1001E000F309F30A08307302031C0529F300F10D2B
:1001F0007208F100F20108307302031C0529F10DA9
:10020000F1017308031D03100D29730803190D294B
:100210000310F20CF10CF30B08297B1B711C17293E
:10022000031C1729F10A0319F20AF21B2E29FA1FDF
:100230003129F209F109F10A0319F20A3129F2010F
:10024000F10131297B14FB1F3429F201FA1F3429F3
:10025000FF30F200F100FA0DF20C34290130FC00FD
:1002600036290030FC003629FF30FC00FC08031959
:0E0270003A299D207108F0007208F100080084
:10027E00831603139C1C452900003F2933089B005D
:10028E0034089A009C131C150B08F0008B13553084
:10029E009D00AA309D009C14F01B57298B135829E2
:0602AE008B171C11080073
:1002B400831603130612861106128612061386137A
:1002C40083128611061186130613861206120A205B
:1002D4000A200A20861606168615172086110A207B
:1002E4008615172086110A208615172086110A20E4
:1002F40006128615172086110A20861517208611E6
:10030400861286178615172086110A20861306166C
:1003140086151720861106128615172086110A20C5
:1003240086151720861106168615172086110A20B1
:1003340006128615172086118617061786160616C6
:0C0344008615172086110A206514080099
:1003500083120313FB017308031D77080319FF2998
:1003600072087606FA007708F3077E30031CBC2972
:10037000F3020318022ABF29F302031C052A72089C
:10038000F8007108FC007008FD00F817F61703105C
:10039000F201F101F0011830A0007D1CD929740888
:1003A000F00775080318750FF10776080318760F24
:1003B000F207F20CF10CF00CF80CFC0CFD0C031025
:1003C000A00BCD29F21BE929F80DF00DF10DF20D6E
:1003D000F3037B1B701CFB29F81FFB29F00A031990
:1003E000F10A0319F20A031DFB29F20CF10CF00CBF
:1003F000F30A0319022AFA1FF2130030072A013008
:100400001A20072A02308820072A04302120000001
:020410000800E2
:10041200831203136F0883169B009C131C141A0883
:04042200F0000800DE
:10042600831203137008F8007108F000F101F2015D
:10043600F301FB01FC019630F300FA01F01F292AB3
:10044600F809F009F80A0319F00AFA177008F1001A
:0C0456007808F000F801F201AA2008006C
:10046200432A803083160313B300562AC030B300E8
:10047200562A9430B300562AD430B300562A80301C
:10048200B300562A831603133308013A0319322A9A
:100492003308023A0319372A3308033A03193A2A6E
:1004A2003308043A03193D2A402A3403F000330882
:1004B200F0077008B3007008B70031206510EF0133
:1004C2006F0883163507840000080319722A831205
:1004D2006F088316350784000008B6009420EF0ADF
:0804E200612A83126514080071
:1004EA00D9208A110A128000840AE30A0319E40A4D
:0804FA00F003031D752A080040
:10050200831203137008F100F0010830FC00710837
:10051200F40C0318902AFC0B892AF1010034031011
:10052200952AF40C0318F107F10CF00CFC0B922A3B
:020532000800BF
:10053400831203137008F8007108F000F101F2014E
:10054400F301FB01FC019630F300FA017008F1009D
:0C0554007808F000F801F201AA2008006D
:1005600083120313F801F9011030FC00710DF80D2E
:10057000F90D7408F8027508031C750FF9020318C9
:10058000C82A7408F80775080318750FF9070310CF
:0A059000F00DF10DFC0BB62A080077
:10059A0083120313F8010830FC00700DF80D74087B
:1005AA00F8020318DA2AF8070310F00DFC0BD22A16
:0205BA00080037
:1005BC00FE240730831203139F0438308316810006
:1005CC0010308500013086008312860185011A30B7
:1005DC00FC00F830FD00FD0BF12AFC0BF12A0000A9
:1005EC005A2101308316B70031200C308316B70026
:1005FC00312001308316B3000330B4002130B50034
:10060C0031220630FB001330FC00AD30FD00FD0B39
:10061C000D2BFC0B0D2BFB0B0D2B000000000230E7
:10062C008316B3000230B4002F30B50031220630EF
:10063C00FB001330FC00AD30FD00FD0B232BFC0B3D
:10064C00232BFB0B232B00000000EF010922700869
:10065C008312E9000330EF0009227008B200B101E7
:10066C0002308312EF000922700831078312E70071
:10067C00831632080318013E8312E80081010B3007
:10068C00FB002630FC005D30FD00FD0B4B2BFC0B02
:10069C004B2BFB0B4B2B000000000108EA006908F8
:1006AC00F0006A08F400812213229A30F400993089
:1006BC00F5004930F6008030F700A821E0207008E2
:1006CC00ED007108EE009A22BC30F4007430F50095
:1006DC001330F6007A30F700A821E0207008EB0008
:1006EC007108EC000618942BE701E801E6010230D2
:1006FC008316B3000130B4004130B50031220B3009
:10070C00FB002630FC005D30FD00FD0B8B2BFC0B41
:10071C008B2BFB0B8B2B00000000D02B6D083F07A5
:10072C00F10040080318013E6E07F2007108BF008B
:10073C007208C0007208273C031DA62B71080F3CE1
:10074C000318BE2B1030F4002730F5003F08F000E2
:10075C004008F100B0220A30F4000030F500B0225D
:10076C007808F0007908F1007008E607BF01C001B5
:10077C006608093C0318E32BE601E70A0319E80AAB
:10078C006808273C031DCC2B67080F3C0318D02BA3
:10079C00E701E80102308316B300FF3083126705CE
:1007AC008316B4003F210330B30083126808F000B5
:1007BC00F10170088316B4003F210A30F4000030B8
:1007CC00F50083126B08F0006C08F100B022780879
:1007DC00F0007908F10030307007DD000A30F400C9
:1007EC000030F5006B08F0006C08F100B0220A3004
:1007FC00F4000030F500B0227808F0007908F10020
:10080C0030307007DC006430F4000030F5006B0809
:10081C00F0006C08F100B0220A30F4000030F50052
:10082C00B0227808F0007908F10030307007F10040
:10083C007108DB007108303A031D262C2030DB00D8
:10084C000A30F4006608F000CD227808F000303051
:10085C0070078316AB000A30F4000030F5008312E9
:10086C006708F0006808F100B0227808F0007908F9
:10087C00F100303070078316A9000A30F400003004
:10088C00F50083126708F0006808F100B0220A3006
:10089C00F4000030F500B0227808F0007908F1007F
:1008AC00303070078316A8006430F4000030F50077
:1008BC0083126708F0006808F100B0220A30F400D7
:1008CC000030F500B0227808F0007908F1003030E3
:1008DC0070078316A700E830F4000330F50083128C
:1008EC006708F0006808F100B0220A30F40000300C
:1008FC00F500B0227808F0007908F100303070076C
:10090C008316A6002708303A031D8E2C2030A70032
:10091C002608303A031D942C2030A6000130B30079
:10092C000130B4005230B500312202308316B300CE
:0E093C000130B400A030B5003122442BA42CB1
:1009FC0021308400423083120313F000AA30E3004C
:100A0C000430E4007522A030840011308312F00011
:0C0A1C00EC30E3000430E4007522080018
:100954002E343A34533443344F34523450344934BB
:0C0964004F344E345A343A342E340034F0
:100970003E342034533450344534453444344F34B9
:100980004D34453454344534523420343C340034EE
:0409900000340034FB
:100994004F3464346F346D34653474346534723474
:1009A4002034523465347334653474342E342E3424
:0209B40000340D
:1009B600533470346534653464343A342034203426
:1009C600203430343034303420344B346D34683491
:0209D6000034EB
:1009D800443469347334743461343A3430343034E0
:1009E800303430342E34303420344B346D342034A9
:0209F8000034C9
:02400E004A2145
:020000040000FA
:104200001E00050000000000FF00FF00FF00FF008F
:10421000FF00FF00FF00FF00FF00FF00FF00FF00A6
:10422000FF00FF00FF00FF00FF00FF00FF00FF0096
:10423000FF00FF00FF00FF00FF00FF00FF00FF0086
:10424000FF00FF00FF00FF00FF00FF00FF00FF0076
:10425000FF00FF00FF00FF00FF00FF00FF00FF0066
:10426000FF00FF00FF00FF00FF00FF00FF00FF0056
:10427000FF00FF00FF00FF00FF00FF00FF00FF0046
:10428000FF00FF00FF00FF00FF00FF00FF00FF0036
:10429000FF00FF00FF00FF00FF00FF00FF00FF0026
:1042A000FF00FF00FF00FF00FF00FF00FF00FF0016
:1042B000FF00FF00FF00FF00FF00FF00FF00FF0006
:1042C000FF00FF00FF00FF00FF00FF00FF00FF00F6
:1042D000FF00FF00FF00FF00FF00FF00FF00FF00E6
:1042E000FF00FF00FF00FF00FF00FF00FF00FF00D6
:1042F000FF00FF00FF00FF00FF00FF00FF00FF00C6
:00000001FF

